{
  "_format": "hh-sol-artifact-1",
  "contractName": "EtherCardsForge",
  "sourceName": "contracts/EtherCardsForge.sol",
  "abi": [
    {
      "inputs": [
        {
          "internalType": "address",
          "name": "_NFTContractAddress",
          "type": "address"
        },
        {
          "internalType": "address",
          "name": "_VaultAddress",
          "type": "address"
        }
      ],
      "stateMutability": "nonpayable",
      "type": "constructor"
    },
    {
      "anonymous": false,
      "inputs": [
        {
          "indexed": true,
          "internalType": "uint16",
          "name": "src",
          "type": "uint16"
        },
        {
          "indexed": true,
          "internalType": "uint16",
          "name": "dst",
          "type": "uint16"
        },
        {
          "indexed": false,
          "internalType": "bytes",
          "name": "callData",
          "type": "bytes"
        }
      ],
      "name": "LayerTransfer",
      "type": "event"
    },
    {
      "anonymous": false,
      "inputs": [
        {
          "indexed": true,
          "internalType": "bytes",
          "name": "data",
          "type": "bytes"
        }
      ],
      "name": "Logged",
      "type": "event"
    },
    {
      "anonymous": false,
      "inputs": [
        {
          "indexed": true,
          "internalType": "address",
          "name": "previousOwner",
          "type": "address"
        },
        {
          "indexed": true,
          "internalType": "address",
          "name": "newOwner",
          "type": "address"
        }
      ],
      "name": "OwnershipTransferred",
      "type": "event"
    },
    {
      "inputs": [
        {
          "internalType": "uint16",
          "name": "",
          "type": "uint16"
        }
      ],
      "name": "ForgeProtector",
      "outputs": [
        {
          "internalType": "bool",
          "name": "",
          "type": "bool"
        }
      ],
      "stateMutability": "view",
      "type": "function"
    },
    {
      "inputs": [],
      "name": "NFTContract",
      "outputs": [
        {
          "internalType": "contract IERC721",
          "name": "",
          "type": "address"
        }
      ],
      "stateMutability": "view",
      "type": "function"
    },
    {
      "inputs": [],
      "name": "Vault",
      "outputs": [
        {
          "internalType": "address",
          "name": "",
          "type": "address"
        }
      ],
      "stateMutability": "view",
      "type": "function"
    },
    {
      "inputs": [],
      "name": "_initialized",
      "outputs": [
        {
          "internalType": "bool",
          "name": "",
          "type": "bool"
        }
      ],
      "stateMutability": "view",
      "type": "function"
    },
    {
      "inputs": [
        {
          "internalType": "bytes",
          "name": "_data",
          "type": "bytes"
        }
      ],
      "name": "logData",
      "outputs": [],
      "stateMutability": "nonpayable",
      "type": "function"
    },
    {
      "inputs": [
        {
          "internalType": "address",
          "name": "operator",
          "type": "address"
        },
        {
          "internalType": "address",
          "name": "from",
          "type": "address"
        },
        {
          "internalType": "uint256",
          "name": "receivedTokenId",
          "type": "uint256"
        },
        {
          "internalType": "bytes",
          "name": "data",
          "type": "bytes"
        }
      ],
      "name": "onERC721Received",
      "outputs": [
        {
          "internalType": "bytes4",
          "name": "",
          "type": "bytes4"
        }
      ],
      "stateMutability": "nonpayable",
      "type": "function"
    },
    {
      "inputs": [],
      "name": "owner",
      "outputs": [
        {
          "internalType": "address",
          "name": "",
          "type": "address"
        }
      ],
      "stateMutability": "view",
      "type": "function"
    },
    {
      "inputs": [],
      "name": "renounceOwnership",
      "outputs": [],
      "stateMutability": "nonpayable",
      "type": "function"
    },
    {
      "inputs": [
        {
          "internalType": "address",
          "name": "_tracker",
          "type": "address"
        },
        {
          "internalType": "uint256",
          "name": "id",
          "type": "uint256"
        }
      ],
      "name": "retrieve721",
      "outputs": [],
      "stateMutability": "nonpayable",
      "type": "function"
    },
    {
      "inputs": [
        {
          "internalType": "address",
          "name": "_tracker",
          "type": "address"
        },
        {
          "internalType": "uint256",
          "name": "amount",
          "type": "uint256"
        }
      ],
      "name": "retrieveERC20",
      "outputs": [],
      "stateMutability": "nonpayable",
      "type": "function"
    },
    {
      "inputs": [
        {
          "internalType": "uint16[]",
          "name": "tokenIds",
          "type": "uint16[]"
        }
      ],
      "name": "setForgeProtection",
      "outputs": [],
      "stateMutability": "nonpayable",
      "type": "function"
    },
    {
      "inputs": [],
      "name": "setInitialized",
      "outputs": [],
      "stateMutability": "nonpayable",
      "type": "function"
    },
    {
      "inputs": [
        {
          "internalType": "address",
          "name": "newOwner",
          "type": "address"
        }
      ],
      "name": "transferOwnership",
      "outputs": [],
      "stateMutability": "nonpayable",
      "type": "function"
    }
  ],
  "bytecode": "0x60806040526000600460006101000a81548160ff02191690831515021790555034801561002b57600080fd5b506040516118103803806118108339818101604052604081101561004e57600080fd5b81019080805190602001909291908051906020019092919050505060006100796101a060201b60201c565b9050806000806101000a81548173ffffffffffffffffffffffffffffffffffffffff021916908373ffffffffffffffffffffffffffffffffffffffff1602179055508073ffffffffffffffffffffffffffffffffffffffff16600073ffffffffffffffffffffffffffffffffffffffff167f8be0079c531659141344cd1fd0a4f28419497f9722a3daafe3b4186f6b6457e060405160405180910390a35081600160006101000a81548173ffffffffffffffffffffffffffffffffffffffff021916908373ffffffffffffffffffffffffffffffffffffffff16021790555080600260006101000a81548173ffffffffffffffffffffffffffffffffffffffff021916908373ffffffffffffffffffffffffffffffffffffffff16021790555050506101a8565b600033905090565b611659806101b76000396000f3fe608060405234801561001057600080fd5b50600436106100cf5760003560e01c8063715018a61161008c578063a466dd9311610066578063a466dd93146103a3578063a5b3abfb1461041c578063f2fde38b1461046a578063fa600ddb146104ae576100cf565b8063715018a61461035b57806380192821146103655780638da5cb5b1461036f576100cf565b8063150b7a02146100d457806317fd1e2f1461020c5780632d2c44f21461025a5780633072cf601461028e57806331c2273b146102ae5780635e7bfa8b146102e2575b600080fd5b6101d7600480360360808110156100ea57600080fd5b81019080803573ffffffffffffffffffffffffffffffffffffffff169060200190929190803573ffffffffffffffffffffffffffffffffffffffff169060200190929190803590602001909291908035906020019064010000000081111561015157600080fd5b82018360208201111561016357600080fd5b8035906020019184600183028401116401000000008311171561018557600080fd5b91908080601f016020809104026020016040519081016040528093929190818152602001838380828437600081840152601f19601f8201169050808301925050505050505091929192905050506104f6565b60405180827bffffffffffffffffffffffffffffffffffffffffffffffffffffffff1916815260200191505060405180910390f35b6102586004803603604081101561022257600080fd5b81019080803573ffffffffffffffffffffffffffffffffffffffff16906020019092919080359060200190929190505050610b83565b005b610262610ce3565b604051808273ffffffffffffffffffffffffffffffffffffffff16815260200191505060405180910390f35b610296610d09565b60405180821515815260200191505060405180910390f35b6102b6610d1c565b604051808273ffffffffffffffffffffffffffffffffffffffff16815260200191505060405180910390f35b610359600480360360208110156102f857600080fd5b810190808035906020019064010000000081111561031557600080fd5b82018360208201111561032757600080fd5b8035906020019184600183028401116401000000008311171561034957600080fd5b9091929391929390505050610d42565b005b610363610d91565b005b61036d610efe565b005b61037761104d565b604051808273ffffffffffffffffffffffffffffffffffffffff16815260200191505060405180910390f35b61041a600480360360208110156103b957600080fd5b81019080803590602001906401000000008111156103d657600080fd5b8201836020820111156103e857600080fd5b8035906020019184602083028401116401000000008311171561040a57600080fd5b9091929391929390505050611076565b005b6104686004803603604081101561043257600080fd5b81019080803573ffffffffffffffffffffffffffffffffffffffff1690602001909291908035906020019092919050505061121a565b005b6104ac6004803603602081101561048057600080fd5b81019080803573ffffffffffffffffffffffffffffffffffffffff169060200190929190505050611374565b005b6104de600480360360208110156104c457600080fd5b81019080803561ffff169060200190929190505050611566565b60405180821515815260200191505060405180910390f35b6000600460009054906101000a900460ff1661057a576040517f08c379a00000000000000000000000000000000000000000000000000000000081526004018080602001828103825260138152602001807f4d75737420626520696e697469616c697a65640000000000000000000000000081525060200191505060405180910390fd5b600160009054906101000a900473ffffffffffffffffffffffffffffffffffffffff1673ffffffffffffffffffffffffffffffffffffffff163373ffffffffffffffffffffffffffffffffffffffff161461063d576040517f08c379a000000000000000000000000000000000000000000000000000000000815260040180806020018281038252601b8152602001807f4d757374206265204e4654436f6e74726163742061646472657373000000000081525060200191505060405180910390fd5b600080600080600080600080600060208b01805160001a9950600181019050805160001a98506001810190505060018960ff16146106e3576040517f08c379a000000000000000000000000000000000000000000000000000000000815260040180806020018281038252601d8152602001807f42696e61727920646174612076657273696f6e206d757374206265203100000081525060200191505060405180910390fd5b60018860ff1614156108f95760228b01600181015160001a610100825160001a02019750600281019050600181015160001a610100825160001a02019650600281019050805160001a9550600181019050805160001a9450600181019050805160001a9350600181019050805160001a9250600181019050805160001a9150508c73ffffffffffffffffffffffffffffffffffffffff16600160009054906101000a900473ffffffffffffffffffffffffffffffffffffffff1673ffffffffffffffffffffffffffffffffffffffff16636352211e896040518263ffffffff1660e01b8152600401808261ffff16815260200191505060206040518083038186803b1580156107f157600080fd5b505afa158015610805573d6000803e3d6000fd5b505050506040513d602081101561081b57600080fd5b810190808051906020019092919050505073ffffffffffffffffffffffffffffffffffffffff1614610898576040517f08c379a00000000000000000000000000000000000000000000000000000000081526004018080602001828103825260438152602001806115b56043913960600191505060405180910390fd5b8561ffff168c146108f4576040517f08c379a000000000000000000000000000000000000000000000000000000000815260040180806020018281038252602c8152602001806115f8602c913960400191505060405180910390fd5b610967565b6040517f08c379a00000000000000000000000000000000000000000000000000000000081526004018080602001828103825260198152602001807f43616c6c2074797065206e6f7420696d706c656d656e7465640000000000000081525060200191505060405180910390fd5b6000600260009054906101000a900473ffffffffffffffffffffffffffffffffffffffff169050600360008861ffff1661ffff16815260200190815260200160002060009054906101000a900460ff16156109f4576000600360008961ffff1661ffff16815260200190815260200160002060006101000a81548160ff0219169083151502179055508d90505b600160009054906101000a900473ffffffffffffffffffffffffffffffffffffffff1673ffffffffffffffffffffffffffffffffffffffff166342842e0e30838a6040518463ffffffff1660e01b8152600401808473ffffffffffffffffffffffffffffffffffffffff1681526020018373ffffffffffffffffffffffffffffffffffffffff1681526020018261ffff1681526020019350505050600060405180830381600087803b158015610aa957600080fd5b505af1158015610abd573d6000803e3d6000fd5b505050508761ffff168761ffff167f5949f486964b9062c1b5d09ce263b19e66864cd9ff78b15688085cddc87b78ce8e6040518080602001828103825283818151815260200191508051906020019080838360005b83811015610b2d578082015181840152602081019050610b12565b50505050905090810190601f168015610b5a5780820380516001836020036101000a031916815260200191505b509250505060405180910390a363150b7a0260e01b9a5050505050505050505050949350505050565b610b8b611586565b73ffffffffffffffffffffffffffffffffffffffff16610ba961104d565b73ffffffffffffffffffffffffffffffffffffffff1614610c32576040517f08c379a00000000000000000000000000000000000000000000000000000000081526004018080602001828103825260208152602001807f4f776e61626c653a2063616c6c6572206973206e6f7420746865206f776e657281525060200191505060405180910390fd5b8173ffffffffffffffffffffffffffffffffffffffff1663a9059cbb33836040518363ffffffff1660e01b8152600401808373ffffffffffffffffffffffffffffffffffffffff16815260200182815260200192505050602060405180830381600087803b158015610ca357600080fd5b505af1158015610cb7573d6000803e3d6000fd5b505050506040513d6020811015610ccd57600080fd5b8101908080519060200190929190505050505050565b600260009054906101000a900473ffffffffffffffffffffffffffffffffffffffff1681565b600460009054906101000a900460ff1681565b600160009054906101000a900473ffffffffffffffffffffffffffffffffffffffff1681565b818160405180838380828437808301925050509250505060405180910390207f1a948835e19c6a208bbb0d247d13c5cc94e0d0663badcbaba4abf920ae29e9b160405160405180910390a25050565b610d99611586565b73ffffffffffffffffffffffffffffffffffffffff16610db761104d565b73ffffffffffffffffffffffffffffffffffffffff1614610e40576040517f08c379a00000000000000000000000000000000000000000000000000000000081526004018080602001828103825260208152602001807f4f776e61626c653a2063616c6c6572206973206e6f7420746865206f776e657281525060200191505060405180910390fd5b600073ffffffffffffffffffffffffffffffffffffffff1660008054906101000a900473ffffffffffffffffffffffffffffffffffffffff1673ffffffffffffffffffffffffffffffffffffffff167f8be0079c531659141344cd1fd0a4f28419497f9722a3daafe3b4186f6b6457e060405160405180910390a360008060006101000a81548173ffffffffffffffffffffffffffffffffffffffff021916908373ffffffffffffffffffffffffffffffffffffffff160217905550565b610f06611586565b73ffffffffffffffffffffffffffffffffffffffff16610f2461104d565b73ffffffffffffffffffffffffffffffffffffffff1614610fad576040517f08c379a00000000000000000000000000000000000000000000000000000000081526004018080602001828103825260208152602001807f4f776e61626c653a2063616c6c6572206973206e6f7420746865206f776e657281525060200191505060405180910390fd5b600460009054906101000a900460ff1615611030576040517f08c379a00000000000000000000000000000000000000000000000000000000081526004018080602001828103825260178152602001807f4d757374206e6f7420626520696e697469616c697a656400000000000000000081525060200191505060405180910390fd5b6001600460006101000a81548160ff021916908315150217905550565b60008060009054906101000a900473ffffffffffffffffffffffffffffffffffffffff16905090565b61107e611586565b73ffffffffffffffffffffffffffffffffffffffff1661109c61104d565b73ffffffffffffffffffffffffffffffffffffffff1614611125576040517f08c379a00000000000000000000000000000000000000000000000000000000081526004018080602001828103825260208152602001807f4f776e61626c653a2063616c6c6572206973206e6f7420746865206f776e657281525060200191505060405180910390fd5b600460009054906101000a900460ff16156111a8576040517f08c379a00000000000000000000000000000000000000000000000000000000081526004018080602001828103825260178152602001807f4d757374206e6f7420626520696e697469616c697a656400000000000000000081525060200191505060405180910390fd5b60005b828290508161ffff1610156112155760016003600085858561ffff168181106111d057fe5b9050602002013561ffff1661ffff1661ffff16815260200190815260200160002060006101000a81548160ff02191690831515021790555080806001019150506111ab565b505050565b611222611586565b73ffffffffffffffffffffffffffffffffffffffff1661124061104d565b73ffffffffffffffffffffffffffffffffffffffff16146112c9576040517f08c379a00000000000000000000000000000000000000000000000000000000081526004018080602001828103825260208152602001807f4f776e61626c653a2063616c6c6572206973206e6f7420746865206f776e657281525060200191505060405180910390fd5b8173ffffffffffffffffffffffffffffffffffffffff166323b872dd3033846040518463ffffffff1660e01b8152600401808473ffffffffffffffffffffffffffffffffffffffff1681526020018373ffffffffffffffffffffffffffffffffffffffff1681526020018281526020019350505050600060405180830381600087803b15801561135857600080fd5b505af115801561136c573d6000803e3d6000fd5b505050505050565b61137c611586565b73ffffffffffffffffffffffffffffffffffffffff1661139a61104d565b73ffffffffffffffffffffffffffffffffffffffff1614611423576040517f08c379a00000000000000000000000000000000000000000000000000000000081526004018080602001828103825260208152602001807f4f776e61626c653a2063616c6c6572206973206e6f7420746865206f776e657281525060200191505060405180910390fd5b600073ffffffffffffffffffffffffffffffffffffffff168173ffffffffffffffffffffffffffffffffffffffff1614156114a9576040517f08c379a000000000000000000000000000000000000000000000000000000000815260040180806020018281038252602681526020018061158f6026913960400191505060405180910390fd5b8073ffffffffffffffffffffffffffffffffffffffff1660008054906101000a900473ffffffffffffffffffffffffffffffffffffffff1673ffffffffffffffffffffffffffffffffffffffff167f8be0079c531659141344cd1fd0a4f28419497f9722a3daafe3b4186f6b6457e060405160405180910390a3806000806101000a81548173ffffffffffffffffffffffffffffffffffffffff021916908373ffffffffffffffffffffffffffffffffffffffff16021790555050565b60036020528060005260406000206000915054906101000a900460ff1681565b60003390509056fe4f776e61626c653a206e6577206f776e657220697320746865207a65726f206164647265737344657374696e6174696f6e20746f6b656e206d757374206265206f776e6564206279207468652073616d65206164647265737320617320736f7572636520746f6b656e546f6b656e2073656e7420746f20636f6e7472616374206d757374206d6174636820737263546f6b656e4964a264697066735822122045c5dc851f79a6c4b55938803e3e33fab877636b0852ac3fec5a03a3b413153164736f6c63430007030033",
  "linkReferences": {},
  "deployedLinkReferences": {}
}